:020000040000FA
:1000000000040020250400002D0400002F0400003F
:10001000310400003304000035040000000000003B
:100020000000000000000000000000003704000095
:1000300039040000000000003B0400003D04000003
:100040003F0400003F0400003F0400003F040000A4
:100050003F0400003F0400003F0400003F04000094
:100060003F0400003F0400003F0400003F04000084
:100070003F0400003F0400003F0400003F04000074
:10040000FFFFFFFFFFFFFFFFFFFFFFFFFEFFFFFFFD
:10041000DFF80CD000F018F8004800471F06000075
:10042000000400200648804706480047FEE7FEE734
:10043000FEE7FEE7FEE7FEE7FEE7FEE7FEE7FEE794
:100440006505000011040000064C074D06E0E06859
:1004500040F0010394E8070098471034AC42F6D30B
:10046000FFF7DAFF40060000500600001749896BCD
:1004700041F40061154A91630C2015E0144A52F8CA
:10048000201041F48071134643F8201052F82010D8
:1004900041F0020143F8201052F8201041F0010110
:1004A00043F82010411CC8B21028E7DB094909684D
:1004B00021F47041074A943AC2F894101146D1F8D9
:1004C000801041F47041C2F88010704700800440F1
:1004D00000B0044094F00F4000201149896B41F4B2
:1004E00000510F4A916300BF09E00E4A52F82010F4
:1004F00041F48071134643F82010411CC8B204280F
:10050000F3DB0949096841F00F01084AC2F81411E8
:100510001146D1F8001141F00F01C2F800117047E7
:100520000080044000D0044014F10F4000F00F4060
:1005300001460B480068C1F1100301229A401040A7
:1005400058B900BF06480068C1F1100301229A4063
:1005500010400028F6D0012070470020FCE7000082
:1005600090F00F404CF220501449C8814DF62810ED
:10057000C8814FF4E97008804FF48810104948642E
:10058000062010490870002048700846C07800F026
:100590003F0040F02000C87000200871487100BF83
:1005A0000848807900F010000028F9D000BF054805
:1005B000807900F00C000028F9D170470020054038
:1005C000008004400040064010B541B1044A126862
:1005D000431E01249C402243024BC3F80C2110BD52
:1005E0000CF10F4000F00F4002E008C8121F08C1D4
:1005F000002AFAD170477047002001E001C1121FA4
:10060000002AFBD17047002005E0002100E0491CD2
:100610003229FCDB401CB0F57A7FF6DB7047FFF730
:100620005BFFFFF723FF09E00120FFF781FF18B10F
:1006300001210846FFF7C8FFFFF7E5FFF4E70000D8
:10064000500600000000002000040000F805000033
:0400000500000411E2
:00000001FF
