:020000040000FA
:1000000000040020250400002D0400002F0400003F
:10001000310400003304000035040000000000003B
:100020000000000000000000000000003704000095
:1000300039040000000000003B0400003D04000003
:100040003F0400003F0400003F0400003F040000A4
:100050003F0400003F0400003F0400003F04000094
:100060003F0400003F0400003F0400003F04000084
:100070003F0400003F0400003F0400003F04000074
:100080003F0400003F0400003F0400003F04000064
:100090003F0400003F0400003F0400003F04000054
:1000A0003F0400003F0400003F0400003F04000044
:1000B0003F0400003F0400003F0400003F04000034
:1000C0003F0400003F0400003F0400003F04000024
:1000D0003F0400003F0400003F0400003F04000014
:1000E0003F0400003F0400003F0400003F04000004
:1000F0003F0400003F0400003F0400003F040000F4
:100100003F0400003F0400003F0400003F040000E3
:100110003F0400003F0400003F0400003F040000D3
:100120003F0400003F0400003F0400003F040000C3
:100130003F0400003F0400003F0400003F040000B3
:100140003F0400003F0400003F0400003F040000A3
:100150003F0400003F0400003F0400003F04000093
:100160003F0400003F0400003F0400003F04000083
:100170003F0400003F0400003F0400003F04000073
:100180003F0400003F0400003F0400003F04000063
:100190003F0400003F0400003F0400003F04000053
:1001A0003F040000C50400003F0400003F040000BD
:1001B0003F0400003F0400003F0400003F04000033
:1001C0003F0400003F0400003F0400003F04000023
:1001D0003F0400003F0400003F0400003F04000013
:1001E0003F0400003F0400003F0400003F04000003
:10040000FFFFFFFFFFFFFFFFFFFFFFFFFEFFFFFFFD
:10041000DFF80CD000F018F8004800474D06000047
:10042000000400200648804706480047FEE7FEE734
:10043000FEE7FEE7FEE7FEE7FEE7FEE7FEE7FEE794
:100440008905000011040000064C074D06E0E06835
:1004500040F0010394E8070098471034AC42F6D30B
:10046000FFF7DAFF6406000074060000002011495F
:10047000896B41F400510F4A916300BF09E00E4AB5
:1004800052F8201041F48071134643F82010411CAB
:10049000C8B20428F3DB0949096841F00F01084A92
:1004A000C2F814111146D1F8001141F00F01C2F841
:1004B000001170470080044000D0044014F10F4048
:1004C00000F00F4010B500F0B0F80A48006800F4E2
:1004D000004018B10121084600F088F8054800687E
:1004E00040F400400349A039C1F8A00000F09DF895
:1004F00010BD0000A0B00440F0B504464AF2D4326A
:10050000501EB0F1807F00D31BE0501E4FF0E0235F
:10051000586158170F23002807DA1D072F0E184DB2
:1005200000F00F06361FAF5503E01D072E0E154DC8
:100530002E5400BF00204FF0E0239861072018617F
:1005400000BF4FF0E020006920F002004FF0E022F1
:100550001061002108E000BF4FF0E020006900F4C6
:1005600080300028F8D0491CA142F4D34FF0E0209D
:10057000006920F001004FF0E0221061F0BD0000A2
:1005800018ED00E000E400E04CF220501449C8816E
:100590004DF62810C8814FF4E97008804FF4881098
:1005A0001049486406201049087000204870084629
:1005B000C07800F03F0040F02000C87000200871B3
:1005C000487100BF0848807900F010000028F9D079
:1005D00000BF0548807900F00C000028F9D1704771
:1005E00000200540008004400040064010B541B1A5
:1005F000044A1268431E01249C402243024BC3F864
:100600000C2110BD0CF10F4000F00F4002E008C8B3
:10061000121F08C1002AFAD170477047002001E07C
:1006200001C1121F002AFBD1704700210BE00020FE
:1006300005E0002200E0521C322AFCDB401CB0F531
:100640007A7FF6DB491C0A29F1DB7047FFF70EFFC2
:1006500007E04FF4FA70FFF74FFF01210846FFF75C
:10066000C5FFF6E77406000000000020000400004B
:040670001C06000064
:0400000500000411E2
:00000001FF
