:020000040000FA
:1000000020040020250400002D0400002F0400001F
:10001000310400003304000035040000000000003B
:100020000000000000000000000000003704000095
:1000300039040000000000003B0400003D04000003
:100040003F0400003F0400003F0400003F040000A4
:100050003F0400003F0400003F0400003F04000094
:100060003F0400003F0400003F0400003F04000084
:100070003F0400003F0400003F0400003F04000074
:100080003F0400003F0400003F0400003F04000064
:100090003F0400003F0400003F0400003F04000054
:1000A0003F0400003F0400003F0400003F04000044
:1000B0003F0400003F0400003F0400003F04000034
:1000C0003F0400003F0400003F0400003F04000024
:1000D0003F0400003F0400003F0400003F04000014
:1000E0003F0400003F0400003F0400003F04000004
:1000F0003F0400003F0400003F0400003F040000F4
:100100003F0400003F0400003F0400003F040000E3
:100110003F0400003F0400003F0400003F040000D3
:100120003F0400003F0400003F0400003F040000C3
:100130003F0400003F0400003F0400003F040000B3
:100140003F0400003F0400003F0400003F040000A3
:100150003F0400003F0400003F0400003F04000093
:100160003F0400003F0400003F0400003F04000083
:100170003F0400003F0400003F0400003F04000073
:100180003F0400003F0400003F0400003F04000063
:100190003F0400003F0400003F0400003F04000053
:1001A0003F040000D50700003F0400003F040000AA
:1001B0003F0400003F0400003F0400003F04000033
:1001C0003F0400003F0400003F0400003F04000023
:1001D0003F0400003F0400003F0400003F04000013
:1001E0003F0400003F0400003F0400003F04000003
:10040000FFFFFFFFFFFFFFFFFFFFFFFFFEFFFFFFFD
:10041000DFF80CD000F018F800480047DD0C0000B1
:10042000200400200648804706480047FEE7FEE714
:10043000FEE7FEE7FEE7FEE7FEE7FEE7FEE7FEE794
:10044000290B000011040000064C074D06E0E0688F
:1004500040F0010394E8070098471034AC42F6D30B
:10046000FFF7DAFF980D0000B80D000030B5024626
:10047000C31700EBD363C3F34711114B53F821307B
:10048000C41700EBD4646411A0EB44150124AC4004
:1004900023430B4C44F82130C31700EBD3635B11AB
:1004A000A0EB43140123A3408C0004F1E024D4F812
:1004B000004123438C0004F1E024C4F8003130BD36
:1004C00080E200E070B572B65920FFF7CFFF082434
:1004D00009E0174951F8240016490843144A42F824
:1004E0002400601CC4B2102CF3DB00200246124B27
:1004F00019684FF6FF031940104B0B4343EA0221E2
:100500000D4B196000BF59200721002808DA0A079F
:10051000150E094A0C3200F00F031B1FD55403E0DF
:100520000A07130E064A135400BF62B670BD0000DE
:1005300000B0044003010A000CED00E00000FA05E1
:1005400000E400E02D49896B41F400612B4A91637E
:100550000C200FE02A4A52F8201041F48071134613
:1005600043F8201052F8201041F0030143F8201006
:10057000411CC8B21028EDDB2249096821F4704102
:10058000204A943AC2F894101146D1F8801041F4F0
:100590007041C2F88010042009E0194A52F8201076
:1005A00041F48071134643F82010411CC8B20C2856
:1005B000F3DB082009E0124A52F8201041F0030151
:1005C000134643F82010411CC8B20C28F3DB0D4938
:1005D000096841F0F0010B4A943AC2F894101146B0
:1005E000D1F8801041F47F61C2F880101146D1F833
:1005F000941021F47061C2F8941070470080044098
:1006000000B0044094F00F401D49896B41F44061F3
:100610001B4A9163102009E01A4A52F8201041F455
:100620008071134643F82010411CC8B21828F3DB30
:10063000002009E0144A52F8201041F4807113465A
:1006400043F82010411CC8B20428F3DB0F49496D60
:1006500041F47F010D4A51650C499431096841F01C
:100660000F01C2F894101146096C41F47F01116426
:100670001146D1F8801041F00F01C2F88010704788
:100680000080044000A0044000B0044000F00F408F
:1006900030B50022002000210C221AE02D4B1C68EE
:1006A000012393401C406CB900BF2A4B1C680123F6
:1006B00093401C40002CF8D00123C2F10F04264DBA
:1006C0002B5504E00023C2F10F04234D2B55531C7E
:1006D000DAB2102AE2DB002039E01E4B103B1B6827
:1006E00043F0F0031B4C903CC4F88030194B103B96
:1006F0001B681A4C245CA343164C903CC4F8803011
:10070000002120E0134B1B6801F108040125A540DE
:100710002B4083B900BF0F4B1B6801F10804012572
:10072000A5402B40002BF6D0012401EB80031B1DBC
:10073000094DEC5405E0002401EB80031B1D064D20
:10074000EC544B1CD9B20429DCDB431CD8B204287E
:10075000C3DB30BD90F00F4008000020920D000078
:1007600010B559B10C4A1268C0F103040123A3402B
:100770001A43094B883BC3F888200BE0064A121F36
:100780001268C0F103040123A3401A43024B883BC3
:10079000C3F8842010BD000088F00F4071B10B4AEF
:1007A000126C22F47F02094B1A641A46126C084B31
:1007B0001B5C42EA0342054B1A6405E0034A126CD3
:1007C00042F47F02014B1A647047000000F00F40B2
:1007D000880D000010B50024FFF75AFFAA480078E2
:1007E000012808D100BF04E0FF20A8490855601C7B
:1007F00044B2042CF8DBA6480078012802D100207E
:10080000A3490870A2484078012802D10020A049DD
:1008100048709F488078012802D100209C49887048
:100820009B48C078012802D100209949C870984897
:10083000407C012812D1002409E0C4F10200934950
:10084000085CC4F10301914A5054601C44B2032C6B
:10085000F3DB00208D4908708D4948748C4800797D
:10086000012813D1002409E0C4F102008749085C83
:10087000C4F10301854A5054601C44B2032CF3DBDD
:100880000120824908700020814908718048407920
:10089000012813D1002409E0C4F102007B49085C5F
:1008A000C4F10301794A5054601C44B2032CF3DBB9
:1008B0000220764908700020754948717448807993
:1008C000012813D1002409E0C4F102006F49085C3B
:1008D000C4F103016D4A5054601C44B2032CF3DB95
:1008E00003206A4908700020694988716848007AC5
:1008F000012813D1002409E0C4F102006349085C17
:10090000C4F10301614A5054601C44B2032CF3DB70
:1009100004205E49087000205D4908725C48407AF6
:10092000012813D1002409E0C4F102005749085CF2
:10093000C4F10301554A5054601C44B2032CF3DB4C
:100940000520524908700020514948725048807A69
:10095000012813D1002409E0C4F102004B49085CCE
:10096000C4F10301494A5054601C44B2032CF3DB28
:100970000620464908700020454988724448007B9B
:10098000012813D1002409E0C4F102003F49085CAA
:10099000C4F103013D4A5054601C44B2032CF3DB04
:1009A00007203A4908700020394908733848407BCD
:1009B000012813D1002409E0C4F102003349085C86
:1009C000C4F10301314A5054601C44B2032CF3DBE0
:1009D00008202E49087000202D4948732C48807B40
:1009E000012813D1002409E0C4F102002749085C62
:1009F000C4F10301254A5054601C44B2032CF3DBBC
:100A00000920224908700020214988732048C079B4
:100A1000012802D100201E49C8711D48C07A012852
:100A200002D100201A49C8721948C07B012802D19E
:100A300000201749C8731648C07C012802D1002045
:100A40001349C8741248007C012802D100201049C3
:100A5000087400200C4908700D48807C012803D1DF
:100A6000087000200A498874082409E0094951F8EF
:100A7000240040F080700A4642F82400601C44B212
:100A8000102CF3DB10BD000004000020000000204B
:100A90000800002000B00440F0B504464AF2D43209
:100AA000501EB0F1807F00D31BE0501E4FF0E023BA
:100AB000586158170F23002807DA1D072F0E184D0D
:100AC00000F00F06361FAF5503E01D072E0E154D23
:100AD0002E5400BF00204FF0E023986107201861DA
:100AE00000BF4FF0E020006920F002004FF0E0224C
:100AF0001061002108E000BF4FF0E020006900F421
:100B000080300028F8D0491CA142F4D34FF0E020F7
:100B1000006920F001004FF0E0221061F0BD0000FC
:100B200018ED00E000E400E04CF220501449C881C8
:100B30004DF62810C8814FF4E97008804FF48810F2
:100B40001049486406201049087000204870084683
:100B5000C07800F03F0040F02000C870002008710D
:100B6000487100BF0848807900F010000028F9D0D3
:100B700000BF0548807900F00C000028F9D17047CB
:100B80000020054000800440004006402DE9F0416F
:100B900004460025A8466420B4FBF0F100FB114098
:100BA00046B26420B4FBF0F047B252E0FFF770FDAC
:100BB00008F10100C0B28046C82811D14FF00008EA
:100BC000701E40B20646401C50B96326781E40B2E3
:100BD0000746401C20B9002700260020BDE8F08110
:100BE0001C48007890B30A2096FBF0F100FB1160DE
:100BF000194908700A2096FBF0F048700A2097FB0C
:100C0000F0F100FB1170144988700A2097FBF0F096
:100C1000C8701248006C20F47F00104908640E4927
:100C2000485D0121FFF7BAFD01212846FFF798FD35
:100C30000520FFF731FF00212846FFF791FD681CD2
:100C4000C0B20546042804D1002502E0FFE70020D9
:100C5000C4E7ABE7040000200000002000F00F40D4
:100C600010B5002423E012480078F0B9FFF710FD1A
:100C70001048006C20F47F000E4908640E49085D9E
:100C80000121FFF78BFD01212046FFF769FD0520BB
:100C9000FFF702FF00212046FFF762FD601CC0B293
:100CA0000446042803D1002401E0002010BDDAE747
:100CB0000400002000F00F400000002002E008C8FF
:100CC000121F08C1002AFAD170477047002001E0C6
:100CD00001C1121F002AFBD170470000FFF732FC50
:100CE000FFF792FCFFF7EEFB49E0FFF7B9FF24485E
:100CF000007870B32348C078FF2817D02148C07807
:100D00004FF47A7110FB01F01E49897801EBC102A2
:100D100002EB011100EB81001A49497801EB8101D6
:100D200000EB410017490978441822E01548807803
:100D3000FF280FD013488078642110FB01F011497F
:100D4000497801EB810100EB41000E490978441814
:100D50000FE014E00B484078FF2808D009480078DD
:100D60000849497801EB810100EB410401E00548A5
:100D700004782046FFF70AFF002001490870B4E715
:100D80000400002000000020C0F9A4B0999282F86D
:100D90008090102040800000B80D0000000000206E
:100DA00008000000BC0C0000C00D0000080000207E
:100DB00018040000CC0C0000FFFFFFFF0000000043
:0400000500000411E2
:00000001FF
