:020000040000FA
:1000000040040020250400002D0400002F040000FF
:10001000310400003304000035040000000000003B
:100020000000000000000000000000003704000095
:1000300039040000000000003B0400003D04000003
:100040003F0400003F0400003F0400003F040000A4
:100050003F0400003F0400003F0400003F04000094
:100060003F0400003F0400003F0400003F04000084
:100070003F0400003F0400003F0400003F04000074
:100080003F0400003F0400003F0400003F04000064
:100090003F0400003F0400003F0400003F04000054
:1000A0003F0400003F0400003F0400003F04000044
:1000B0003F0400003F0400003F0400003F04000034
:1000C0003F0400003F0400003F0400003F04000024
:1000D0003F0400003F0400003F0400003F04000014
:1000E0003F0400003F0400003F0400003F04000004
:1000F0003F0400003F0400003F0400003F040000F4
:100100003F040000BD0D00003F0400003F0400005C
:100110003F0400003F0400003F0400003F040000D3
:100120003F0400003F0400003F0400003F040000C3
:100130003F0400003F0400003F0400003F040000B3
:100140003F0400003F0400003F0400003F040000A3
:100150003F0400003F0400003F0400003F04000093
:100160003F0400003F0400003F0400003F04000083
:100170003F0400003F0400003F0400003F04000073
:100180003F0400003F0400003F0400003F04000063
:100190003F0400003F0400003F0400003F04000053
:1001A0003F040000C10800003F0400003F040000BD
:1001B0003F0400003F0400003F0400003F04000033
:1001C0003F0400003F0400003F0400003F04000023
:1001D0003F0400003F0400003F0400003F04000013
:1001E0003F0400003F0400003F0400003F04000003
:10040000FFFFFFFFFFFFFFFFFFFFFFFFFEFFFFFFFD
:10041000DFF80CD000F020F800480047390E00004B
:10042000400400200648804706480047FEE7FEE7F4
:10043000FEE7FEE7FEE7FEE7FEE7FEE7FEE7FEE794
:10044000290C000011040000421C10F8011B0029B7
:10045000FBD1801A70470000064C074D06E0E068AB
:1004600040F0010394E8070098471034AC42F6D3FB
:10047000FFF7D2FFFC0E00001C0F000030B5024653
:10048000C31700EBD363C3F34711114B53F821306B
:10049000C41700EBD4646411A0EB44150124AC40F4
:1004A00023430B4C44F82130C31700EBD3635B119B
:1004B000A0EB43140123A3408C0004F1E024D4F802
:1004C000004123438C0004F1E024C4F8003130BD26
:1004D00080E200E070B572B65920FFF7CFFF082424
:1004E00009E0174951F8240016490843144A42F814
:1004F0002400601CC4B2102CF3DB00200246124B17
:1005000019684FF6FF031940104B0B4343EA0221D1
:100510000D4B196000BF59200721002808DA0A078F
:10052000150E094A0C3200F00F031B1FD55403E0CF
:100530000A07130E064A135400BF62B670BD0000CE
:1005400000B0044003010A000CED00E00000FA05D1
:1005500000E400E02D49896B41F400612B4A91636E
:100560000C200FE02A4A52F8201041F48071134603
:1005700043F8201052F8201041F0030143F82010F6
:10058000411CC8B21028EDDB2249096821F47041F2
:10059000204A943AC2F894101146D1F8801041F4E0
:1005A0007041C2F88010042009E0194A52F8201066
:1005B00041F48071134643F82010411CC8B20C2846
:1005C000F3DB082009E0124A52F8201041F0030141
:1005D000134643F82010411CC8B20C28F3DB0D4928
:1005E000096841F0F0010B4A943AC2F894101146A0
:1005F000D1F8801041F47F61C2F880101146D1F823
:10060000941021F47061C2F8941070470080044087
:1006100000B0044094F00F401D49896B41F44061E3
:100620001B4A9163102009E01A4A52F8201041F445
:100630008071134643F82010411CC8B21828F3DB20
:10064000002009E0144A52F8201041F4807113464A
:1006500043F82010411CC8B20428F3DB0F49496D50
:1006600041F47F010D4A51650C499431096841F00C
:100670000F01C2F894101146096C41F47F01116416
:100680001146D1F8801041F00F01C2F88010704778
:100690000080044000A0044000B0044000F00F407F
:1006A000F0B5024600BF0023314C646B44F4805423
:1006B0002F4D6C632F4CA46844F440742D4DAC60F6
:1006C0002C46A46844F44074AC602B4CA47824F00D
:1006D0000204294DAC702C46A47824F01004AC70B0
:1006E0002C46E47824F00404EC702C46E47824F0E2
:1006F0000804EC704FF0A064B4FBF2F000211F245A
:100700000440E3B2440944EAC16049092C46A47A92
:1007100024F01F04AC722C46A47A1C43AC722C4605
:10072000647800246C702C466478C5B22C43124D5A
:100730006C702C46247824F01F042C702C462478EE
:10074000050A45EA01651F2635402C430A4D2C70E9
:100750002C46E47844F00404EC702C46E47844F031
:100760000804EC702C46E47844F02004EC70F0BDF2
:100770000080044000C0044000C0064030B50022A4
:10078000002000210C221AE02D4B1C68012393400D
:100790001C406CB900BF2A4B1C68012393401C40CD
:1007A000002CF8D00123C2F10F04264D2B5504E094
:1007B0000023C2F10F04234D2B55531CDAB2102A2B
:1007C000E2DB002039E01E4B103B1B6843F0F003D6
:1007D0001B4C903CC4F88030194B103B1B681A4CE2
:1007E000245CA343164C903CC4F88030002120E0E8
:1007F000134B1B6801F108040125A5402B4083B968
:1008000000BF0F4B1B6801F108040125A5402B40D8
:10081000002BF6D0012401EB80031B1D094DEC5485
:1008200005E0002401EB80031B1D064DEC544B1C1E
:10083000D9B20429DCDB431CD8B20428C3DB30BDA9
:1008400090F00F4028000020F60E000010B559B1BE
:100850000C4A1268C0F103040123A3401A43094B58
:10086000883BC3F888200BE0064A121F1268C0F1CB
:1008700003040123A3401A43024B883BC3F884209E
:1008800010BD000088F00F4071B10B4A126C22F4C9
:100890007F02094B1A641A46126C084B1B5C42EA31
:1008A0000342054B1A6405E0034A126C42F47F02CE
:1008B000014B1A647047000000F00F40EC0E00007E
:1008C00010B50024FFF75AFFAD480078012808D181
:1008D00000BF04E0FF20AB490855601C44B2042C63
:1008E000F8DBA9480078012802D10020A649087049
:1008F000A5484078012802D10020A3494870A248A9
:100900008078012802D100209F4988709E48C078D5
:10091000012802D100209C49C8709B48407C0128D6
:1009200012D1002409E0C4F102009649085CC4F128
:100930000301944A5054601C44B2032CF3DB0020A2
:1009400090490870904948748F480079012813D164
:10095000002409E0C4F102008A49085CC4F10301E3
:10096000884A5054601C44B2032CF3DB01208549B3
:10097000087000208449087183484079012813D108
:10098000002409E0C4F102007E49085CC4F10301BF
:100990007C4A5054601C44B2032CF3DB022079499A
:1009A000087000207849487177488079012813D170
:1009B000002409E0C4F102007249085CC4F103019B
:1009C000704A5054601C44B2032CF3DB03206D4981
:1009D000087000206C4988716B48007A012813D197
:1009E000002409E0C4F102006649085CC4F1030177
:1009F000644A5054601C44B2032CF3DB0420614968
:100A000008700020604908725F48407A012813D1BD
:100A1000002409E0C4F102005A49085CC4F1030152
:100A2000584A5054601C44B2032CF3DB052055494E
:100A300008700020544948725348807A012813D125
:100A4000002409E0C4F102004E49085CC4F103012E
:100A50004C4A5054601C44B2032CF3DB0620494935
:100A600008700020484988724748007B012813D14C
:100A7000002409E0C4F102004249085CC4F103010A
:100A8000404A5054601C44B2032CF3DB07203D491C
:100A9000087000203C4908733B48407B012813D173
:100AA000002409E0C4F102003649085CC4F10301E6
:100AB000344A5054601C44B2032CF3DB0820314903
:100AC00008700020304948732F48807B012813D1DB
:100AD000002409E0C4F102002A49085CC4F10301C2
:100AE000284A5054601C44B2032CF3DB09202549EA
:100AF00008700020244988732348C079012802D156
:100B000000202149C8712048C07A012802D1002064
:100B10001D49C8721C48C07B012802D100201A4917
:100B2000C8731948C07C012802D100201649C87436
:100B30001548007C012808D11448007810B11448E9
:100B400000F05CF900201049087400200C4908707E
:100B50000D48807C012803D1087000200A49887460
:100B6000082409E00B4951F8240040F080700A463F
:100B700042F82400601C44B2102CF3DB10BD0000CE
:100B80000400002000000020280000202500002094
:100B90000500002000B00440F0B504464AF2D4320B
:100BA000501EB0F1807F00D31BE0501E4FF0E023B9
:100BB000586158170F23002807DA1D072F0E184D0C
:100BC00000F00F06361FAF5503E01D072E0E154D22
:100BD0002E5400BF00204FF0E023986107201861D9
:100BE00000BF4FF0E020006920F002004FF0E0224B
:100BF0001061002108E000BF4FF0E020006900F420
:100C000080300028F8D0491CA142F4D34FF0E020F6
:100C1000006920F001004FF0E0221061F0BD0000FB
:100C200018ED00E000E400E04CF220501449C881C7
:100C30004DF62810C8814FF4E97008804FF48810F1
:100C40001049486406201049087000204870084682
:100C5000C07800F03F0040F02000C870002008710C
:100C6000487100BF0848807900F010000028F9D0D2
:100C700000BF0548807900F00C000028F9D17047CA
:100C80000020054000800440004006402DE9F0416E
:100C900004460025A8466420B4FBF0F100FB114097
:100CA00046B26420B4FBF0F047B252E0FFF766FDB5
:100CB00008F10100C0B28046C82811D14FF00008E9
:100CC000701E40B20646401C50B96326781E40B2E2
:100CD0000746401C20B9002700260020BDE8F0810F
:100CE0001C48007890B30A2096FBF0F100FB1160DD
:100CF000194908700A2096FBF0F048700A2097FB0B
:100D0000F0F100FB1170144988700A2097FBF0F095
:100D1000C8701248006C20F47F00104908640E4926
:100D2000485D0121FFF7B0FD01212846FFF78EFD48
:100D30000520FFF731FF00212846FFF787FD681CDB
:100D4000C0B20546042804D1002502E0FFE70020D8
:100D5000C4E7ABE7040000200000002000F00F40D3
:100D600010B5002423E012480078F0B9FFF706FD23
:100D70001048006C20F47F000E4908640E49085D9D
:100D80000121FFF781FD01212046FFF75FFD0520CE
:100D9000FFF702FF00212046FFF758FD601CC0B29C
:100DA0000446042803D1002401E0002010BDDAE746
:100DB0000400002000F00F400000002010B500F0FB
:100DC00005F80149087010BD2500002000BF044847
:100DD000007900F020000028F9D00148C079704760
:100DE00000C0064000BF0449097901F080010029D4
:100DF000F9D00149C871704700C0064070B505467A
:100E00002846FFF721FB0646002403E0285DFFF794
:100E1000E9FF641CB442F9D370BD02E008C8121F98
:100E200008C1002AFAD170477047002001E001C1D3
:100E3000121F002AFBD17047FFF78CFBFFF7ECFB7A
:100E4000FFF748FB4FF4E130FFF72AFC49E0FFF7DA
:100E500087FF2448007870B32348C078FF2817D054
:100E60002148C0784FF47A7110FB01F01E4989784F
:100E700001EBC10202EB011100EB81001A49497834
:100E800001EB810100EB410017490978441822E089
:100E900015488078FF280FD013488078642110FB14
:100EA00001F01149497801EB810100EB41000E4945
:100EB000097844180FE014E00B484078FF2808D068
:100EC000094800780849497801EB810100EB4104A9
:100ED00001E0054804782046FFF7D8FE00200149CC
:100EE0000870B4E70400002000000020C0F9A4B09E
:100EF000999282F880901020408000001C0F000022
:100F000000000020280000001A0E0000440F00001E
:100F100028000020180400002A0E0000FFFFFFFF39
:100F200000546865206E756D62657220696E20746C
:100F30006865207475626520697320303030300A2E
:040F400000000000AD
:0400000500000411E2
:00000001FF
