:020000040000FA
:1000000000040020250400002D0400002F0400003F
:10001000310400003304000035040000000000003B
:100020000000000000000000000000003704000095
:1000300039040000000000003B0400003D04000003
:100040003F0400003F0400003F0400003F040000A4
:100050003F0400003F0400003F0400003F04000094
:100060003F0400003F0400003F0400003F04000084
:100070003F0400003F0400003F0400003F04000074
:10040000FFFFFFFFFFFFFFFFFFFFFFFFFEFFFFFFFD
:10041000DFF80CD000F018F800480047E7060000AD
:10042000000400200648804706480047FEE7FEE734
:10043000FEE7FEE7FEE7FEE7FEE7FEE7FEE7FEE794
:100440002D06000011040000064C074D06E0E06890
:1004500040F0010394E8070098471034AC42F6D30B
:10046000FFF7DAFF24070000340700000146481EAA
:10047000014A105C70470000120700002D49896B8B
:1004800041F400612B4A91630C200FE02A4A52F894
:10049000201041F48071134643F8201052F82010C8
:1004A00041F0030143F82010411CC8B21028EDDBD5
:1004B0002249096821F47041204A943AC2F8941004
:1004C0001146D1F8801041F47041C2F88010042028
:1004D00009E0194A52F8201041F48071134643F89C
:1004E0002010411CC8B20C28F3DB082009E0124A96
:1004F00052F8201041F00301134643F82010411C2C
:10050000C8B20C28F3DB0D49096841F0F0010B4A31
:10051000943AC2F894101146D1F8801041F47F61EA
:10052000C2F880101146D1F8941021F47061C2F81D
:10053000941070470080044000B0044094F00F40D5
:1005400000201149896B41F400510F4A916300BFAB
:1005500009E00E4A52F8201041F48071134643F826
:100560002010411CC8B20428F3DB0949096841F096
:100570000F01084AC2F814111146D1F8001141F0D8
:100580000F01C2F8001170470080044000D0044001
:1005900014F10F4000F00F4010B500220021204858
:1005A000006840F0F0001E4B803BC3F8800036E04E
:1005B0001B4800681B4B9B5C9843194B803BC3F85E
:1005C000800000211BE016481030006801F108038C
:1005D00001249C40204080B900BF114810300068C1
:1005E00001F1080301249C4020400028F5D004209C
:1005F00000FB02100C4B185C10BD481CC1B2042952
:10060000E1DB0748006840F0F000054B803BC3F891
:100610008000501CC0B20246042800D10022C7E767
:1006200080F00F400E070000120700004CF220502F
:100630001449C8814DF62810C8814FF4E97008802C
:100640004FF48810104948640620104908700020B3
:1006500048700846C07800F03F0040F02000C870A5
:1006600000200871487100BF0848807900F0100030
:100670000028F9D000BF0548807900F00C00002860
:10068000F9D170470020054000800440004006403A
:1006900010B541B1044A1268431E01249C40224314
:1006A000024BC3F80C2110BD0CF10F4000F00F40BD
:1006B00002E008C8121F08C1002AFAD1704770472B
:1006C000002001E001C1121F002AFBD17047002069
:1006D00005E0002100E0491C3229FCDB401CB0F59C
:1006E0007A7FF6DB7047FFF72BFFFFF7C7FE0DE0C1
:1006F000FFF752FF04460120FFF7B8FE844203D102
:1007000001210220FFF7C4FFFFF7E1FFF0E710200F
:1007100040800102030A0405060B0708090C1012A9
:10072000130D00003407000000000020000400004A
:04073000C0060000FF
:0400000500000411E2
:00000001FF
