:020000040000FA
:1000000040040020250400002D0400002F040000FF
:10001000310400003304000035040000000000003B
:100020000000000000000000000000003704000095
:1000300039040000000000003B0400003D04000003
:100040003F0400003F0400003F0400003F040000A4
:100050003F0400003F0400003F0400003F04000094
:100060003F0400003F0400003F0400003F04000084
:100070003F0400003F0400003F0400003F04000074
:100080003F0400003F0400003F0400003F04000064
:100090003F0400003F0400003F0400003F04000054
:1000A0003F0400003F0400003F0400003F04000044
:1000B0003F0400003F0400003F0400003F04000034
:1000C0003F0400003F0400003F0400003F04000024
:1000D0003F0400003F0400003F0400003F04000014
:1000E0003F0400003F0400003F0400003F04000004
:1000F0003F0400003F0400003F0400003F040000F4
:100100003F0400007D0900003F0400003F040000A0
:100110003F0400003F0400003F0400003F040000D3
:100120003F0400003F0400003F0400003F040000C3
:100130003F0400003F0400003F0400003F040000B3
:100140003F0400003F0400003F0400003F040000A3
:100150003F0400003F0400003F0400003F04000093
:100160003F0400003F0400003F0400003F04000083
:100170003F0400003F0400003F0400003F04000073
:100180003F0400003F0400003F0400003F04000063
:100190003F0400003F0400003F0400003F04000053
:1001A0003F040000A50500003F0400003F040000DC
:1001B0003F0400003F0400003F0400003F04000033
:1001C0003F0400003F0400003F0400003F04000023
:1001D0003F0400003F0400003F0400003F04000013
:1001E0003F0400003F0400003F0400003F04000003
:10040000FFFFFFFFFFFFFFFFFFFFFFFFFEFFFFFFFD
:10041000DFF80CD000F020F800480047F909000090
:10042000400400200648804706480047FEE7FEE7F4
:10043000FEE7FEE7FEE7FEE7FEE7FEE7FEE7FEE794
:10044000F908000011040000421C10F8011B0029EB
:10045000FBD1801A70470000064C074D06E0E068AB
:1004600040F0010394E8070098471034AC42F6D3FB
:10047000FFF7D2FF180A0000380A000000201149D7
:10048000896B41F400510F4A916300BF09E00E4AA5
:1004900052F8201041F48071134643F82010411C9B
:1004A000C8B20428F3DB0949096841F00F01084A82
:1004B000C2F814111146D1F8001141F00F01C2F831
:1004C000001170470080044000D0044014F10F4038
:1004D00000F00F4030B50022002000210C221AE06D
:1004E0002D4B1C68012393401C406CB900BF2A4B64
:1004F0001C68012393401C40002CF8D00123C2F15A
:100500000F04264D2B5504E00023C2F10F04234DA8
:100510002B55531CDAB2102AE2DB002039E01E4BC7
:10052000103B1B6843F0F0031B4C903CC4F8803038
:10053000194B103B1B681A4C245CA343164C903C8F
:10054000C4F88030002120E0134B1B6801F108043F
:100550000125A5402B4083B900BF0F4B1B6801F15B
:1005600008040125A5402B40002BF6D0012401EB07
:1005700080031B1D094DEC5405E0002401EB8003B2
:100580001B1D064DEC544B1CD9B20429DCDB431C6B
:10059000D8B20428C3DB30BD90F00F402800002003
:1005A000120A000010B50024FFF794FFAD48007850
:1005B000012808D100BF04E0FF20AB490855601CAA
:1005C00044B2042CF8DBA9480078012802D10020AD
:1005D000A6490870A5484078012802D10020A34907
:1005E0004870A2488078012802D100209F49887075
:1005F0009E48C078012802D100209C49C8709B48C1
:10060000407C012812D1002409E0C4F1020096497F
:10061000085CC4F10301944A5054601C44B2032C9A
:10062000F3DB002090490870904948748F480079A6
:10063000012813D1002409E0C4F102008A49085CB2
:10064000C4F10301884A5054601C44B2032CF3DB0C
:100650000120854908700020844908718348407949
:10066000012813D1002409E0C4F102007E49085C8E
:10067000C4F103017C4A5054601C44B2032CF3DBE8
:1006800002207949087000207849487177488079BC
:10069000012813D1002409E0C4F102007249085C6A
:1006A000C4F10301704A5054601C44B2032CF3DBC4
:1006B00003206D49087000206C4988716B48007AEE
:1006C000012813D1002409E0C4F102006649085C46
:1006D000C4F10301644A5054601C44B2032CF3DBA0
:1006E0000420614908700020604908725F48407A20
:1006F000012813D1002409E0C4F102005A49085C22
:10070000C4F10301584A5054601C44B2032CF3DB7B
:100710000520554908700020544948725348807A92
:10072000012813D1002409E0C4F102004E49085CFD
:10073000C4F103014C4A5054601C44B2032CF3DB57
:100740000620494908700020484988724748007BC4
:10075000012813D1002409E0C4F102004249085CD9
:10076000C4F10301404A5054601C44B2032CF3DB33
:1007700007203D49087000203C4908733B48407BF6
:10078000012813D1002409E0C4F102003649085CB5
:10079000C4F10301344A5054601C44B2032CF3DB0F
:1007A0000820314908700020304948732F48807B69
:1007B000012813D1002409E0C4F102002A49085C91
:1007C000C4F10301284A5054601C44B2032CF3DBEB
:1007D0000920254908700020244988732348C079DE
:1007E000012802D100202149C8712048C07A01287F
:1007F00002D100201D49C8721C48C07B012802D1CB
:1008000000201A49C8731948C07C012802D1002071
:100810001649C8741548007C012808D1144800788E
:1008200010B1144800F0CAF80020104908740020E4
:100830000C4908700D48807C012803D10870002005
:100840000A498874082409E00B4951F8240040F053
:1008500080700A4642F82400601C44B2102CF3DB7E
:1008600010BD00000400002000000020280000202F
:10087000250000200500002000B0044010B51B4AF0
:10088000D26B42F40002194BDA63194A126842F043
:100890000202174B1A601A46126842F001021A60EF
:1008A0004AF2D333134A01F0030402EB041213603B
:1008B000104A01F0030302EB0312926842F00103B5
:1008C0000C4A01F0030402EB04129360094A01F0A0
:1008D000030302EB0312926842F00203054A01F09F
:1008E000030402EB0412936010BD0000008004407A
:1008F00000700340007103404CF220501449C8813D
:100900004DF62810C8814FF4E97008804FF4881024
:1009100010494864062010490870002048700846B5
:10092000C07800F03F0040F02000C870002008713F
:10093000487100BF0848807900F010000028F9D005
:1009400000BF0548807900F00C000028F9D17047FD
:1009500000200540008004400040064010B541B131
:10096000044A1268431E01249C402243024BC3F8F0
:100970000C2110BD0CF10F4000F00F4010B500F03D
:1009800005F80149087010BD2500002000BF04488B
:10099000007900F020000028F9D00148C0797047A4
:1009A00000C0064000BF0449097901F08001002918
:1009B000F9D00149C871704700C0064070B50546BE
:1009C0002846FFF741FD0646002403E0285DFFF7B7
:1009D000E9FF641CB442F9D370BD02E008C8121FDD
:1009E00008C1002AFAD170477047002001E001C118
:1009F000121F002AFBD17047FFF740FD08E00021DD
:100A00004FF4FA70FFF73AFF01210846FFF7A6FFFF
:100A1000F5E7102040800000380A000000000020A8
:100A200028000000DA090000600A00002800002009
:100A300018040000EA090000FFFFFFFF005468658A
:100A4000206E756D62657220696E20746865207411
:100A500075626520697320303030300A0000000074
:0400000500000411E2
:00000001FF
