:020000040000FA
:1000000000040020250400002D0400002F0400003F
:10001000310400003304000035040000000000003B
:100020000000000000000000000000003704000095
:1000300039040000000000003B0400003D04000003
:100040003F0400003F0400003F0400003F040000A4
:100050003F0400003F0400003F0400003F04000094
:100060003F0400003F0400003F0400003F04000084
:100070003F0400003F0400003F0400003F04000074
:100080003F0400003F0400003F0400003F04000064
:100090003F0400003F0400003F0400003F04000054
:1000A0003F0400003F0400003F0400003F04000044
:1000B0003F0400003F0400003F0400003F04000034
:1000C0003F0400003F0400003F0400003F04000024
:1000D0003F0400003F0400003F0400003F04000014
:1000E0003F0400003F0400003F0400003F04000004
:1000F0003F0400003F0400003F0400003F040000F4
:100100003F0400003F0400003F0400003F040000E3
:100110003F0400003F0400003F0400003F040000D3
:100120003F0400003F0400003F0400003F040000C3
:100130003F0400003F0400003F0400003F040000B3
:100140003F0400003F0400003F0400003F040000A3
:100150003F0400003F0400003F0400003F04000093
:100160003F0400003F0400003F0400003F04000083
:100170003F0400003F0400003F0400003F04000073
:100180003F0400003F0400003F0400003F04000063
:100190003F0400003F0400003F0400003F04000053
:1001A0003F040000610600003F0400003F0400001F
:1001B0003F0400003F0400003F0400003F04000033
:1001C0003F0400003F0400003F0400003F04000023
:1001D0003F0400003F0400003F0400003F04000013
:1001E0003F0400003F0400003F0400003F04000003
:10040000FFFFFFFFFFFFFFFFFFFFFFFFFEFFFFFFFD
:10041000DFF80CD000F018F8004800472F07000064
:10042000000400200648804706480047FEE7FEE734
:10043000FEE7FEE7FEE7FEE7FEE7FEE7FEE7FEE794
:100440008D06000011040000064C074D06E0E06830
:1004500040F0010394E8070098471034AC42F6D30B
:10046000FFF7DAFF400700005007000030B50246F2
:10047000C31700EBD363C3F34711114B53F821307B
:10048000C41700EBD4646411A0EB44150124AC4004
:1004900023430B4C44F82130C31700EBD3635B11AB
:1004A000A0EB43140123A3408C0004F1E024D4F812
:1004B000004123438C0004F1E024C4F8003130BD36
:1004C00080E200E070B572B65920FFF7CFFF0C2430
:1004D00009E0174951F8240016490843144A42F824
:1004E0002400601CC4B2102CF3DB00200246124B27
:1004F00019684FF6FF031940104B0B4343EA0221E2
:100500000D4B196000BF59200121002808DA0A07A5
:10051000150E094A0C3200F00F031B1FD55403E0DF
:100520000A07130E064A135400BF62B670BD0000DE
:1005300000B00440030109000CED00E00000FA05E2
:1005400000E400E02D49896B41F400612B4A91637E
:100550000C200FE02A4A52F8201041F48071134613
:1005600043F8201052F8201041F0030143F8201006
:10057000411CC8B21028EDDB2249096821F4704102
:10058000204A943AC2F894101146D1F8801041F4F0
:100590007041C2F88010042009E0194A52F8201076
:1005A00041F48071134643F82010411CC8B20C2856
:1005B000F3DB082009E0124A52F8201041F0030151
:1005C000134643F82010411CC8B20C28F3DB0D4938
:1005D000096841F0F0010B4A943AC2F894101146B0
:1005E000D1F8801041F47F61C2F880101146D1F833
:1005F000941021F47061C2F8941070470080044098
:1006000000B0044094F00F4000201149896B41F480
:1006100000510F4A916300BF09E00E4A52F82010C2
:1006200041F48071134643F82010411CC8B20428DD
:10063000F3DB0949096841F00F01084AC2F81411B7
:100640001146D1F8001141F00F01C2F800117047B6
:100650000080044000D0044014F10F4000F00F402F
:1006600010B50948006800F4004018B1012108469F
:1006700000F03EF80448006840F400400249A03908
:10068000C1F8A00010BD0000A0B004404CF2205002
:100690001449C8814DF62810C8814FF4E9700880CC
:1006A0004FF4881010494864062010490870002053
:1006B00048700846C07800F03F0040F02000C87045
:1006C00000200871487100BF0848807900F01000D0
:1006D0000028F9D000BF0548807900F00C00002800
:1006E000F9D17047002005400080044000400640DA
:1006F00010B541B1044A1268431E01249C402243B4
:10070000024BC3F80C2110BD0CF10F4000F00F405C
:1007100002E008C8121F08C1002AFAD170477047CA
:10072000002001E001C1121F002AFBD17047FFF732
:100730006BFFFFF707FFFFF7C5FE00BFFEE70000F6
:100740005007000000000020000400002007000007
:0400000500000411E2
:00000001FF
